:100000000C9432000C9444000C9444000C94440072
:100010000C9444000C9444000C9444000C94440050
:100020000C9444000C9444000C9444000C94440040
:100030000C9444000C9444000C9444000C94440030
:100040000C9444000C9444000C9444000C94440020
:100050000C944400A100B600C700D800E900FA00E3
:100060000B011C0111241FBECFE5D8E0DEBFCDBFC0
:1000700020E0A0E6B0E001C01D92A236B207E1F791
:100080000E947A010C94DC020C94000060E082E48F
:100090000E943A0160E081E40E94530161E081E442
:1000A0000E94530162E081E40E94530163E081E415
:1000B0000E94530160E081E40E946D0161E081E4EF
:1000C0000E946D0162E081E40E946D0163E081E4C1
:1000D0000E946D01089541E650E060E082E40E94D4
:1000E000470180916100882309F4C3C02FEF8DEE92
:1000F00092E0215080409040E1F700C0000041E6CE
:1001000050E060E082E40E94470180916100882312
:1001100009F4AFC041E650E060E082E40E9447018C
:1001200080916000E1E0E80FE09360008E2F90E0A6
:10013000FC013197E830F105A0F4E65DFF4F0C9427
:10014000D60260E081E40E94600161E081E40E94E7
:100150006D0162E081E40E946D0163E081E40E9430
:100160006D018091610081117AC0089560E081E4A1
:100170000E94600161E081E40E94600162E081E42C
:100180000E946D0163E081E40E946D01EACF60E0AE
:1001900081E40E94600161E081E40E94600162E00C
:1001A00081E40E94600163E081E40E946D01D9CF87
:1001B00060E081E40E94600161E081E40E946001EE
:1001C00062E081E40E94600163E081E40E946001DA
:1001D000C8CF60E081E40E946D0161E081E40E948B
:1001E000600162E081E40E94600163E081E40E94BA
:1001F0006001B7CF60E081E40E946D0161E081E4BD
:100200000E946D0162E081E40E94600163E081E48C
:100210000E946001A6CF60E081E40E946D0161E070
:1002200081E40E946D0162E081E40E946D0163E05F
:1002300081E40E94600195CF60E081E40E946D013D
:1002400061E081E40E946D0162E081E40E946D0141
:1002500063E081E40E946D011092600082CF41E66C
:1002600050E060E082E40E944701809161008111CA
:10027000F6CF0895853438F4683038F440E00E94B1
:100280007F0180E0089581E0089582E0089585343B
:1002900030F4683030F40E94950280E0089581E0E7
:1002A000089582E00895853438F4683038F441E0E8
:1002B0000E947F0180E0089581E0089582E0089522
:1002C000853438F4683038F441E00E940A0280E056
:1002D000089581E0089582E00895853438F4683007
:1002E00038F440E00E940A0280E0089581E0089519
:1002F00082E008950E9446000E946B00FDCF6830A6
:1003000008F080C0442321F0413009F440C07CC093
:100310008234B1F018F4813431F078C08334E9F0DC
:10032000843441F173C02AB381E090E002C0880FA9
:10033000991F6A95E2F7809582238ABB80E0089531
:1003400027B381E090E002C0880F991F6A95E2F719
:100350008095822387BB80E0089524B381E090E0FC
:1003600002C0880F991F6A95E2F78095822384BBAB
:1003700080E0089521B381E090E002C0880F991FCA
:100380006A95E2F78095822381BB80E008958234EC
:10039000A9F018F4813431F03BC08334D9F08434AF
:1003A00029F136C02AB381E090E002C0880F991F7E
:1003B0006A95E2F7822B8ABB80E0089527B381E03B
:1003C00090E002C0880F991F6A95E2F7822B87BBE5
:1003D00080E0089524B381E090E002C0880F991F67
:1003E0006A95E2F7822B84BB80E0089521B381E017
:1003F00090E002C0880F991F6A95E2F7822B81BBBB
:1004000080E0089582E0089584E0089581E00895F1
:1004100081E00895683008F080C0442321F0413025
:1004200009F440C07CC08234B1F018F4813431F05A
:1004300078C08334E9F0843441F173C02BB381E098
:1004400090E002C0880F991F6A95E2F78095822399
:100450008BBB80E0089528B381E090E002C0880F54
:10046000991F6A95E2F78095822388BB80E0089502
:1004700025B381E090E002C0880F991F6A95E2F7EA
:100480008095822385BB80E0089522B381E090E0CF
:1004900002C0880F991F6A95E2F78095822382BB7C
:1004A00080E008958234A9F018F4813431F03BC023
:1004B0008334D9F0843429F136C02BB381E090E045
:1004C00002C0880F991F6A95E2F7822B8BBB80E0F0
:1004D000089528B381E090E002C0880F991F6A95C3
:1004E000E2F7822B88BB80E0089525B381E090E09D
:1004F00002C0880F991F6A95E2F7822B85BB80E0C6
:10050000089522B381E090E002C0880F991F6A9598
:10051000E2F7822B82BB80E0089582E0089583E0B9
:10052000089581E0089581E008956830D8F5823417
:10053000A9F018F4813431F037C08334D9F0843411
:1005400029F132C089B390E002C0959587956A95EC
:10055000E2F78170FA01808380E0089586B390E02D
:1005600002C0959587956A95E2F78170FA018083BC
:1005700080E0089583B390E002C0959587956A95D1
:10058000E2F78170FA01808380E0089580B390E003
:1005900002C0959587956A95E2F78170FA0180838C
:1005A00080E0089582E0089581E00895EE0FFF1F36
:0C05B0000590F491E02D0994F894FFCF21
:00000001FF
